:100000000A128A11442F00308A000408840A8207E9
:1000100000344C34593443344134203453344F3455
:06002000463454340034A4
:100E880083010A128A117C2F02300A128A11A227C2
:100E98000A128A1128300A128A11A2270A128A1104
:100EA8000C300A128A11A2270A128A110800F400CB
:100EB8006E2F740884000A128A1103200A128A11FC
:100EC8000A128A11D1270A128A110130F300730815
:100ED800F4076E2F740884000A128A1103200A127C
:100EE8008A110038031D792F7A2F5D2F7B2F080078
:100EF8008316031388018312031388010A128A11C7
:100F080048270A128A11882F80300A128A11A227CC
:100F18000A128A1101300A128A115B270A128A11F1
:100F28002130F6007630F500F50B982FF60B982F48
:100F38006400882F882F0A128A110028F20072088C
:100F4800F039831203138800081188152130F10045
:100F58007630F000F00BAE2FF10BAE2F6400831249
:100F6800031388117208F00003300310F00DFF3EE0
:100F7800031DB92F0310700DF0398800081188156A
:100F88002130F1007630F000F00BC82FF10BC82F9C
:100F980064008312031388110800F2007208F03904
:100FA800831203138800081588152130F100763064
:100FB800F000F00BDD2FF10BDD2F6400831203131B
:100FC80088117208F00003300310F00DFF3E031D76
:100FD800E82F0310700DF0398800081588152130A6
:100FE800F1007630F000F00BF72FF10BF72F6400CB
:080FF8008312031388110800A5
:02400E003A3F37
:00000001FF
